:1000000066C2FECFFDCFFCCFFBCFFACFF9CFF8CF42
:10001000F7CFF6CFF5CFF4CFF3CFF2CFF1CFF0CFCC
:06002000EFCFEECFEDCFA3
:1004CE00BFEDBDBFB0E0BEBF2F923F9240E050E007
:1004DE0000E010E0BAB3B160BABBB7B3B160B7BB5E
:1004EE00B7B3B260B7BBB7B3B460B7BBB7B3B77F80
:1004FE00B7BBB1B3B460B1BBB1B3B860B1BBB1B34C
:10050E00B061B1BBB1B3B064B1BB06B2222703FC7C
:10051E0023953327303009F4213059F412E009E0E5
:10052E000A95F1F71A95E1F78A010F5F1F4FA8019F
:10053E0010C000EA10EBB0DF8C01A8011801B5DE87
:10054E003F932F931A0120DF2F913F9100E010E08F
:06055E00A801DBCFFFCF76
:1002B80000E010E02016310634F00AE010E02016C5
:1002C80031060CF492DF0AE010E02016310634F013
:1002D80004E110E0201631060CF494DF04E110E08C
:1002E8002016310634F00EE110E0201631060CF429
:1002F8006FDF0EE110E02016310634F008E210E05E
:10030800201631060CF44ADF08E210E02016310608
:1003180034F002E310E0201631060CF44CDF02E35F
:1003280010E02016310634F00CE310E020163106F8
:100338000CF475DF0CE310E02016310634F006E407
:1003480010E0201631060CF491DF06E410E02016C8
:10035800310634F000E510E0201631060CF493DF86
:1003680000E510E02016310634F00AE510E020160A
:1003780031060CF461DF0AE510E02016310634F08E
:0E03880004E610E0201631060CF463DF089541
:1001F200B2B3B064B2BBB8B3B460B8BBB8B3B260A8
:0A020200B8BBB8B3B160B8BB0895F3
:10020C00B2B3B064B2BBB8B3BB7FB8BBB8B3BD7F3D
:0A021C00B8BBB8B3BE7FB8BB0895AD
:1001D800B2B3BF7BB2BBB8B3B460B8BBB8B3BD7F72
:0A01E800B8BBB8B3BE7FB8BB0895E2
:1001A400B2B3B064B2BBB8B3B460B8BBB8B3BD7FCC
:0A01B400B8BBB8B3BE7FB8BB089516
:1001BE00B2B3BF7BB2BBB8B3BB7FB8BBB8B3B26090
:0A01CE00B8BBB8B3BE7FB8BB0895FC
:10022600B2B3B064B2BBB8B3BB7FB8BBB8B3B2604D
:0A023600B8BBB8B3BE7FB8BB089593
:10027400B2B3BF7BB2BBB8B3B460B8BBB8B3B260FF
:0A028400B8BBB8B3BE7FB8BB089545
:10028E00B2B3B064B2BBB8B3B460B8BBB8B3B2600B
:0A029E00B8BBB8B3BE7FB8BB08952B
:10024000B2B3BF7BB2BBB8B3BB7FB8BBB8B3BD7FE3
:0A025000B8BBB8B3B160B8BB0895A5
:10025A00B2B3B064B2BBB8B3BB7FB8BBB8B3BD7FEF
:0A026A00B8BBB8B3B160B8BB08958B
:1003960000E010E03F922F924AE050E081019BDEA0
:1003A6008B012F903F904AE050E0BFDE9101201B69
:1003B600310BA90100E010E02017310734F001E00D
:1003C60010E0401751070CF452DE01E010E0401730
:1003D600510734F002E010E0401751070CF454DEE8
:1003E60002E010E04017510734F003E010E0401738
:1003F60051070CF456DE03E010E04017510734F0C5
:1004060004E010E0401751070CF40ADE04E010E0A7
:100416004017510734F005E010E0401751070CF47F
:100426000CDE05E010E04017510734F006E010E05E
:10043600401751070CF40EDE06E010E04017510796
:1004460034F007E010E0401751070CF481DE07E0B6
:1004560010E04017510734F008E010E0401751074C
:100466000CF483DE08E010E04017510734F009E091
:1004760010E0401751070CF485DE09E010E0401744
:10048600510734F00AE010E0401751070CF416DE6D
:020496000895C7
:10007400BBB3BE7FBBBBB2B3BF7EB2BBB2B3B77FB1
:0A008400B2BBB2B3BB7FB2BB08955C
:10008E00BBB3B160BBBBB2B3BF7EB2BBB2B3B77FC3
:0A009E00B2BBB2B3BB7FB2BB089542
:1000A800BBB3BE7FBBBBB2B3B061B2BBB2B3B77FA9
:0A00B800B2BBB2B3BB7FB2BB089528
:10002600BBB3B160BBBBB2B3B061B2BBB2B3B77F57
:0A003600B2BBB2B3BB7FB2BB0895AA
:10004000BBB3BE7FBBBBB2B3BF7EB2BBB2B3B86003
:0A005000B2BBB2B3BB7FB2BB089590
:10005A00BBB3B160BBBBB2B3BF7EB2BBB2B3B86015
:0A006A00B2BBB2B3BB7FB2BB089576
:10015600BBB3BE7FBBBBB2B3B061B2BBB2B3B86018
:0A016600B2BBB2B3BB7FB2BB089579
:10017000BBB3B160BBBBB2B3B061B2BBB2B3B8602A
:0A018000B2BBB2B3BB7FB2BB08955F
:10018A00BBB3BE7FBBBBB2B3BF7EB2BBB2B3B77F9A
:0A019A00B2BBB2B3B460B2BB08956B
:1000C200BBB3B160BBBBB2B3BF7EB2BBB2B3B77F8F
:0A00D200B2BBB2B3B460B2BB089534
:1000DC00C801BA0197FB092E07260AD077FD04D078
:1000EC000CD006D000201AF4709561957F4F0895BE
:1000FC00F6F7909581959F4F0895AA1BBB1B51E174
:10010C0007C0AA1FBB1FA617B70710F0A61BB70B7B
:10011C00881F991F5A95A9F780959095BC01CD0120
:04012C000895089595
:100130002227002400FF02C0040E251F440F551F74
:100140004115510529F0169507951050004091F77B
:06015000122F002D08959E
:0A04980005900D920197E1F7089519
:1004A600C801BA01AA1BBB1B51E107C0AA1FBB1F8B
:1004B600A617B70710F0A61BB70B881F991F5A95EA
:0804C600A9F7809590950895B7
:0204A4000895B9
:0204A2000895BB
:0202AC000895B3
:0202AA000895B5
:0202A8000895B7
:0202AE000895B1
:0202B4000895AB
:0202B2000895AD
:0202B0000895AF
:0202B6000895A9
:00000001FF
